01#BPA#2023110000050000051111SECRETARIA MUNICIPAL DE SAUDE SMS   12345678901234HOSPITAL MUNICIPAL                      M1.0.0     
022234567202311225125001010301010013045000010EXT
022234567202311225125001020301010021035000015EXT
022234567202311225125001030301010030060000008EXT
022234567202311225125002010301010048028000012EXT
022234567202311225125002020301010056055000005EXT
