01#BPA#2023110000030000031111SECRETARIA MUNICIPAL DE SAUDE SMS   12345678901234HOSPITAL MUNICIPAL                      M1.0.0     
03223456720231189898989898989822512520231101001010301010013123456789012345M123456Z000045000001011234567890123EXTJOAO DA SILVA                 1978051501nan 010nannannan     nan 1234567890123412345678001RUA DAS FLORES                APTO 101  123  CENTRO                        11999999999joao@email.com                          1234567890
03223456720231189898989898989822512520231101001020301010021987654321098765F123456Z001035000001019876543210987EXTMARIA SANTOS                  1988082001nan 010nannannan     nan 1234567890123412345678001RUA DAS PALMEIRAS             CASA      456  JARDIM                        11988888888maria@email.com                         1234567890
03223456720231189898989898989822512520231102001030301010030456789012345678M123456Z002060000001014567890123456EXTPEDRO OLIVEIRA                1963021001nan 010nannannan     nan 1234567890123412345678001AV PRINCIPAL                  nan       789  CENTRO                        11977777777pedro@email.com                         1234567890
